{
  "_format": "hh-sol-artifact-1",
  "contractName": "PasswordStore",
  "sourceName": "contracts/PasswordStore.sol",
  "abi": [
    {
      "inputs": [],
      "stateMutability": "nonpayable",
      "type": "constructor"
    },
    {
      "inputs": [],
      "name": "PasswordStore__NotOwner",
      "type": "error"
    },
    {
      "anonymous": false,
      "inputs": [],
      "name": "SetNetPassword",
      "type": "event"
    },
    {
      "inputs": [],
      "name": "getPassword",
      "outputs": [
        {
          "internalType": "string",
          "name": "",
          "type": "string"
        }
      ],
      "stateMutability": "view",
      "type": "function"
    },
    {
      "inputs": [
        {
          "internalType": "string",
          "name": "newPassword",
          "type": "string"
        }
      ],
      "name": "setPassword",
      "outputs": [],
      "stateMutability": "nonpayable",
      "type": "function"
    }
  ],
  "bytecode": "0x608060405234801561001057600080fd5b50336000806101000a81548173ffffffffffffffffffffffffffffffffffffffff021916908373ffffffffffffffffffffffffffffffffffffffff16021790555061072d806100606000396000f3fe608060405234801561001057600080fd5b50600436106100365760003560e01c8063290bb4531461003b578063cc8e239414610057575b600080fd5b61005560048036038101906100509190610325565b610075565b005b61005f6100b4565b60405161006c91906103ed565b60405180910390f35b80600190816100849190610625565b507fe0c0c4369656c0c076d23bc27b02824cebc7bef10cb375fd34334edd4974c85460405160405180910390a150565b606060008054906101000a900473ffffffffffffffffffffffffffffffffffffffff1673ffffffffffffffffffffffffffffffffffffffff163373ffffffffffffffffffffffffffffffffffffffff161461013b576040517ff442873000000000000000000000000000000000000000000000000000000000815260040160405180910390fd5b600180546101489061043e565b80601f01602080910402602001604051908101604052809291908181526020018280546101749061043e565b80156101c15780601f10610196576101008083540402835291602001916101c1565b820191906000526020600020905b8154815290600101906020018083116101a457829003601f168201915b5050505050905090565b6000604051905090565b600080fd5b600080fd5b600080fd5b600080fd5b6000601f19601f8301169050919050565b7f4e487b7100000000000000000000000000000000000000000000000000000000600052604160045260246000fd5b610232826101e9565b810181811067ffffffffffffffff82111715610251576102506101fa565b5b80604052505050565b60006102646101cb565b90506102708282610229565b919050565b600067ffffffffffffffff8211156102905761028f6101fa565b5b610299826101e9565b9050602081019050919050565b82818337600083830152505050565b60006102c86102c384610275565b61025a565b9050828152602081018484840111156102e4576102e36101e4565b5b6102ef8482856102a6565b509392505050565b600082601f83011261030c5761030b6101df565b5b813561031c8482602086016102b5565b91505092915050565b60006020828403121561033b5761033a6101d5565b5b600082013567ffffffffffffffff811115610359576103586101da565b5b610365848285016102f7565b91505092915050565b600081519050919050565b600082825260208201905092915050565b60005b838110156103a857808201518184015260208101905061038d565b60008484015250505050565b60006103bf8261036e565b6103c98185610379565b93506103d981856020860161038a565b6103e2816101e9565b840191505092915050565b6000602082019050818103600083015261040781846103b4565b905092915050565b7f4e487b7100000000000000000000000000000000000000000000000000000000600052602260045260246000fd5b6000600282049050600182168061045657607f821691505b6020821081036104695761046861040f565b5b50919050565b60008190508160005260206000209050919050565b60006020601f8301049050919050565b600082821b905092915050565b6000600883026104d17fffffffffffffffffffffffffffffffffffffffffffffffffffffffffffffffff82610494565b6104db8683610494565b95508019841693508086168417925050509392505050565b6000819050919050565b6000819050919050565b600061052261051d610518846104f3565b6104fd565b6104f3565b9050919050565b6000819050919050565b61053c83610507565b61055061054882610529565b8484546104a1565b825550505050565b600090565b610565610558565b610570818484610533565b505050565b5b818110156105945761058960008261055d565b600181019050610576565b5050565b601f8211156105d9576105aa8161046f565b6105b384610484565b810160208510156105c2578190505b6105d66105ce85610484565b830182610575565b50505b505050565b600082821c905092915050565b60006105fc600019846008026105de565b1980831691505092915050565b600061061583836105eb565b9150826002028217905092915050565b61062e8261036e565b67ffffffffffffffff811115610647576106466101fa565b5b610651825461043e565b61065c828285610598565b600060209050601f83116001811461068f576000841561067d578287015190505b6106878582610609565b8655506106ef565b601f19841661069d8661046f565b60005b828110156106c5578489015182556001820191506020850194506020810190506106a0565b868310156106e257848901516106de601f8916826105eb565b8355505b6001600288020188555050505b50505050505056fea26469706673582212206aa1a796309f5b07ca4fa6ed5f35941514f77961e942cad9b8546005ca8fbbca64736f6c63430008120033",
  "linkReferences": {},
  "deployedLinkReferences": {}
}